{
  "contractName": "MarketplaceToken",
  "abi": [
    {
      "inputs": [],
      "stateMutability": "nonpayable",
      "type": "constructor"
    },
    {
      "anonymous": false,
      "inputs": [
        {
          "indexed": true,
          "internalType": "address",
          "name": "_owner",
          "type": "address"
        },
        {
          "indexed": true,
          "internalType": "address",
          "name": "_spender",
          "type": "address"
        },
        {
          "indexed": false,
          "internalType": "uint256",
          "name": "_value",
          "type": "uint256"
        }
      ],
      "name": "Approval",
      "type": "event"
    },
    {
      "anonymous": false,
      "inputs": [
        {
          "indexed": true,
          "internalType": "address",
          "name": "_from",
          "type": "address"
        },
        {
          "indexed": true,
          "internalType": "address",
          "name": "_to",
          "type": "address"
        },
        {
          "indexed": false,
          "internalType": "uint256",
          "name": "_value",
          "type": "uint256"
        }
      ],
      "name": "Transfer",
      "type": "event"
    },
    {
      "inputs": [
        {
          "internalType": "address",
          "name": "",
          "type": "address"
        },
        {
          "internalType": "address",
          "name": "",
          "type": "address"
        }
      ],
      "name": "allowance",
      "outputs": [
        {
          "internalType": "uint256",
          "name": "",
          "type": "uint256"
        }
      ],
      "stateMutability": "view",
      "type": "function",
      "constant": true
    },
    {
      "inputs": [
        {
          "internalType": "address",
          "name": "",
          "type": "address"
        }
      ],
      "name": "balanceOf",
      "outputs": [
        {
          "internalType": "uint256",
          "name": "",
          "type": "uint256"
        }
      ],
      "stateMutability": "view",
      "type": "function",
      "constant": true
    },
    {
      "inputs": [],
      "name": "name",
      "outputs": [
        {
          "internalType": "string",
          "name": "",
          "type": "string"
        }
      ],
      "stateMutability": "view",
      "type": "function",
      "constant": true
    },
    {
      "inputs": [],
      "name": "symbol",
      "outputs": [
        {
          "internalType": "string",
          "name": "",
          "type": "string"
        }
      ],
      "stateMutability": "view",
      "type": "function",
      "constant": true
    },
    {
      "inputs": [],
      "name": "totalSupply",
      "outputs": [
        {
          "internalType": "uint256",
          "name": "",
          "type": "uint256"
        }
      ],
      "stateMutability": "view",
      "type": "function",
      "constant": true
    },
    {
      "inputs": [],
      "name": "decimals",
      "outputs": [
        {
          "internalType": "uint8",
          "name": "",
          "type": "uint8"
        }
      ],
      "stateMutability": "view",
      "type": "function",
      "constant": true
    },
    {
      "inputs": [
        {
          "internalType": "address",
          "name": "_to",
          "type": "address"
        },
        {
          "internalType": "uint256",
          "name": "_value",
          "type": "uint256"
        }
      ],
      "name": "transfer",
      "outputs": [
        {
          "internalType": "bool",
          "name": "success",
          "type": "bool"
        }
      ],
      "stateMutability": "nonpayable",
      "type": "function"
    },
    {
      "inputs": [
        {
          "internalType": "address",
          "name": "_spender",
          "type": "address"
        },
        {
          "internalType": "uint256",
          "name": "_value",
          "type": "uint256"
        }
      ],
      "name": "approve",
      "outputs": [
        {
          "internalType": "bool",
          "name": "success",
          "type": "bool"
        }
      ],
      "stateMutability": "nonpayable",
      "type": "function"
    },
    {
      "inputs": [
        {
          "internalType": "address",
          "name": "_from",
          "type": "address"
        },
        {
          "internalType": "address",
          "name": "_to",
          "type": "address"
        },
        {
          "internalType": "uint256",
          "name": "_value",
          "type": "uint256"
        }
      ],
      "name": "transferFrom",
      "outputs": [
        {
          "internalType": "bool",
          "name": "success",
          "type": "bool"
        }
      ],
      "stateMutability": "nonpayable",
      "type": "function"
    },
    {
      "inputs": [
        {
          "internalType": "address",
          "name": "recipient",
          "type": "address"
        },
        {
          "internalType": "uint256",
          "name": "amount",
          "type": "uint256"
        }
      ],
      "name": "buyTokens",
      "outputs": [
        {
          "internalType": "bool",
          "name": "",
          "type": "bool"
        }
      ],
      "stateMutability": "payable",
      "type": "function",
      "payable": true
    }
  ],
  "bytecode": "0x60806040526040518060400160405280601081526020017f4d61726b6574706c616365546f6b656e000000000000000000000000000000008152506000908051906020019062000051929190620002de565b506040518060400160405280600381526020017f4d504b0000000000000000000000000000000000000000000000000000000000815250600190805190602001906200009f929190620002de565b50348015620000ad57600080fd5b5060006002819055506012600560006101000a81548160ff021916908360ff160217905550620000e6306103e8620000ec60201b60201c565b6200052c565b600073ffffffffffffffffffffffffffffffffffffffff168273ffffffffffffffffffffffffffffffffffffffff1614156200015f576040517f08c379a00000000000000000000000000000000000000000000000000000000081526004016200015690620003e1565b60405180910390fd5b6200017b816002546200028960201b62000b151790919060201c565b600281905550620001da81600360008573ffffffffffffffffffffffffffffffffffffffff1673ffffffffffffffffffffffffffffffffffffffff168152602001908152602001600020546200028960201b62000b151790919060201c565b600360008473ffffffffffffffffffffffffffffffffffffffff1673ffffffffffffffffffffffffffffffffffffffff168152602001908152602001600020819055508173ffffffffffffffffffffffffffffffffffffffff16600073ffffffffffffffffffffffffffffffffffffffff167fddf252ad1be2c89b69c2b068fc378daa952ba7f163c4a11628f55a4df523b3ef836040516200027d919062000403565b60405180910390a35050565b60008082846200029a919062000431565b905083811015620002d4577f4e487b7100000000000000000000000000000000000000000000000000000000600052600160045260246000fd5b8091505092915050565b828054620002ec9062000498565b90600052602060002090601f0160209004810192826200031057600085556200035c565b82601f106200032b57805160ff19168380011785556200035c565b828001600101855582156200035c579182015b828111156200035b5782518255916020019190600101906200033e565b5b5090506200036b91906200036f565b5090565b5b808211156200038a57600081600090555060010162000370565b5090565b60006200039d601f8362000420565b91507f45524332303a206d696e7420746f20746865207a65726f2061646472657373006000830152602082019050919050565b620003db816200048e565b82525050565b60006020820190508181036000830152620003fc816200038e565b9050919050565b60006020820190506200041a6000830184620003d0565b92915050565b600082825260208201905092915050565b60006200043e826200048e565b91506200044b836200048e565b9250827fffffffffffffffffffffffffffffffffffffffffffffffffffffffffffffffff03821115620004835762000482620004ce565b5b828201905092915050565b6000819050919050565b60006002820490506001821680620004b157607f821691505b60208210811415620004c857620004c7620004fd565b5b50919050565b7f4e487b7100000000000000000000000000000000000000000000000000000000600052601160045260246000fd5b7f4e487b7100000000000000000000000000000000000000000000000000000000600052602260045260246000fd5b611067806200053c6000396000f3fe6080604052600436106100915760003560e01c8063313ce56711610059578063313ce5671461019657806370a08231146101c157806395d89b41146101fe578063a9059cbb14610229578063dd62ed3e1461026657610091565b806306fdde03146100965780630752881a146100c1578063095ea7b3146100f157806318160ddd1461012e57806323b872dd14610159575b600080fd5b3480156100a257600080fd5b506100ab6102a3565b6040516100b89190610dc5565b60405180910390f35b6100db60048036038101906100d69190610ca7565b610331565b6040516100e89190610daa565b60405180910390f35b3480156100fd57600080fd5b5061011860048036038101906101139190610ca7565b6103d4565b6040516101259190610daa565b60405180910390f35b34801561013a57600080fd5b506101436104c6565b6040516101509190610de7565b60405180910390f35b34801561016557600080fd5b50610180600480360381019061017b9190610c58565b6104cc565b60405161018d9190610daa565b60405180910390f35b3480156101a257600080fd5b506101ab61084c565b6040516101b89190610e02565b60405180910390f35b3480156101cd57600080fd5b506101e860048036038101906101e39190610bf3565b610863565b6040516101f59190610de7565b60405180910390f35b34801561020a57600080fd5b5061021361087b565b6040516102209190610dc5565b60405180910390f35b34801561023557600080fd5b50610250600480360381019061024b9190610ca7565b610909565b60405161025d9190610daa565b60405180910390f35b34801561027257600080fd5b5061028d60048036038101906102889190610c1c565b610af0565b60405161029a9190610de7565b60405180910390f35b600080546102b090610f4b565b80601f01602080910402602001604051908101604052809291908181526020018280546102dc90610f4b565b80156103295780601f106102fe57610100808354040283529160200191610329565b820191906000526020600020905b81548152906001019060200180831161030c57829003601f168201915b505050505081565b60003073ffffffffffffffffffffffffffffffffffffffff1663095ea7b384846040518363ffffffff1660e01b815260040161036e929190610d81565b602060405180830381600087803b15801561038857600080fd5b505af115801561039c573d6000803e3d6000fd5b505050506040513d601f19601f820116820180604052508101906103c09190610ce3565b506103cc3084846104cc565b905092915050565b600081600460003373ffffffffffffffffffffffffffffffffffffffff1673ffffffffffffffffffffffffffffffffffffffff16815260200190815260200160002060008573ffffffffffffffffffffffffffffffffffffffff1673ffffffffffffffffffffffffffffffffffffffff168152602001908152602001600020819055508273ffffffffffffffffffffffffffffffffffffffff163373ffffffffffffffffffffffffffffffffffffffff167f8c5be1e5ebec7d5bd14f71427d1e84f3dd0314c0f7b2291e5b200ac8c7c3b925846040516104b49190610de7565b60405180910390a36001905092915050565b60025481565b6000600360008573ffffffffffffffffffffffffffffffffffffffff1673ffffffffffffffffffffffffffffffffffffffff1681526020019081526020016000205482111561051a57600080fd5b600460008573ffffffffffffffffffffffffffffffffffffffff1673ffffffffffffffffffffffffffffffffffffffff16815260200190815260200160002060003373ffffffffffffffffffffffffffffffffffffffff1673ffffffffffffffffffffffffffffffffffffffff168152602001908152602001600020548211156105a357600080fd5b6105f582600360008773ffffffffffffffffffffffffffffffffffffffff1673ffffffffffffffffffffffffffffffffffffffff16815260200190815260200160002054610b6790919063ffffffff16565b600360008673ffffffffffffffffffffffffffffffffffffffff1673ffffffffffffffffffffffffffffffffffffffff1681526020019081526020016000208190555061068a82600360008673ffffffffffffffffffffffffffffffffffffffff1673ffffffffffffffffffffffffffffffffffffffff16815260200190815260200160002054610b1590919063ffffffff16565b600360008573ffffffffffffffffffffffffffffffffffffffff1673ffffffffffffffffffffffffffffffffffffffff1681526020019081526020016000208190555061075c82600460008773ffffffffffffffffffffffffffffffffffffffff1673ffffffffffffffffffffffffffffffffffffffff16815260200190815260200160002060003373ffffffffffffffffffffffffffffffffffffffff1673ffffffffffffffffffffffffffffffffffffffff16815260200190815260200160002054610b6790919063ffffffff16565b600460008673ffffffffffffffffffffffffffffffffffffffff1673ffffffffffffffffffffffffffffffffffffffff16815260200190815260200160002060003373ffffffffffffffffffffffffffffffffffffffff1673ffffffffffffffffffffffffffffffffffffffff168152602001908152602001600020819055508273ffffffffffffffffffffffffffffffffffffffff168473ffffffffffffffffffffffffffffffffffffffff167fddf252ad1be2c89b69c2b068fc378daa952ba7f163c4a11628f55a4df523b3ef846040516108399190610de7565b60405180910390a3600190509392505050565b6000600560009054906101000a900460ff16905090565b60036020528060005260406000206000915090505481565b6001805461088890610f4b565b80601f01602080910402602001604051908101604052809291908181526020018280546108b490610f4b565b80156109015780601f106108d657610100808354040283529160200191610901565b820191906000526020600020905b8154815290600101906020018083116108e457829003601f168201915b505050505081565b600081600360003373ffffffffffffffffffffffffffffffffffffffff1673ffffffffffffffffffffffffffffffffffffffff16815260200190815260200160002054101561095757600080fd5b6109a982600360003373ffffffffffffffffffffffffffffffffffffffff1673ffffffffffffffffffffffffffffffffffffffff16815260200190815260200160002054610b6790919063ffffffff16565b600360003373ffffffffffffffffffffffffffffffffffffffff1673ffffffffffffffffffffffffffffffffffffffff16815260200190815260200160002081905550610a3e82600360008673ffffffffffffffffffffffffffffffffffffffff1673ffffffffffffffffffffffffffffffffffffffff16815260200190815260200160002054610b1590919063ffffffff16565b600360008573ffffffffffffffffffffffffffffffffffffffff1673ffffffffffffffffffffffffffffffffffffffff168152602001908152602001600020819055508273ffffffffffffffffffffffffffffffffffffffff163373ffffffffffffffffffffffffffffffffffffffff167fddf252ad1be2c89b69c2b068fc378daa952ba7f163c4a11628f55a4df523b3ef84604051610ade9190610de7565b60405180910390a36001905092915050565b6004602052816000526040600020602052806000526040600020600091509150505481565b6000808284610b249190610e39565b905083811015610b5d577f4e487b7100000000000000000000000000000000000000000000000000000000600052600160045260246000fd5b8091505092915050565b600082821115610ba0577f4e487b7100000000000000000000000000000000000000000000000000000000600052600160045260246000fd5b8183610bac9190610e8f565b905092915050565b600081359050610bc381610fec565b92915050565b600081519050610bd881611003565b92915050565b600081359050610bed8161101a565b92915050565b600060208284031215610c0557600080fd5b6000610c1384828501610bb4565b91505092915050565b60008060408385031215610c2f57600080fd5b6000610c3d85828601610bb4565b9250506020610c4e85828601610bb4565b9150509250929050565b600080600060608486031215610c6d57600080fd5b6000610c7b86828701610bb4565b9350506020610c8c86828701610bb4565b9250506040610c9d86828701610bde565b9150509250925092565b60008060408385031215610cba57600080fd5b6000610cc885828601610bb4565b9250506020610cd985828601610bde565b9150509250929050565b600060208284031215610cf557600080fd5b6000610d0384828501610bc9565b91505092915050565b610d1581610ec3565b82525050565b610d2481610ed5565b82525050565b6000610d3582610e1d565b610d3f8185610e28565b9350610d4f818560208601610f18565b610d5881610fdb565b840191505092915050565b610d6c81610f01565b82525050565b610d7b81610f0b565b82525050565b6000604082019050610d966000830185610d0c565b610da36020830184610d63565b9392505050565b6000602082019050610dbf6000830184610d1b565b92915050565b60006020820190508181036000830152610ddf8184610d2a565b905092915050565b6000602082019050610dfc6000830184610d63565b92915050565b6000602082019050610e176000830184610d72565b92915050565b600081519050919050565b600082825260208201905092915050565b6000610e4482610f01565b9150610e4f83610f01565b9250827fffffffffffffffffffffffffffffffffffffffffffffffffffffffffffffffff03821115610e8457610e83610f7d565b5b828201905092915050565b6000610e9a82610f01565b9150610ea583610f01565b925082821015610eb857610eb7610f7d565b5b828203905092915050565b6000610ece82610ee1565b9050919050565b60008115159050919050565b600073ffffffffffffffffffffffffffffffffffffffff82169050919050565b6000819050919050565b600060ff82169050919050565b60005b83811015610f36578082015181840152602081019050610f1b565b83811115610f45576000848401525b50505050565b60006002820490506001821680610f6357607f821691505b60208210811415610f7757610f76610fac565b5b50919050565b7f4e487b7100000000000000000000000000000000000000000000000000000000600052601160045260246000fd5b7f4e487b7100000000000000000000000000000000000000000000000000000000600052602260045260246000fd5b6000601f19601f8301169050919050565b610ff581610ec3565b811461100057600080fd5b50565b61100c81610ed5565b811461101757600080fd5b50565b61102381610f01565b811461102e57600080fd5b5056fea2646970667358221220f789dab96ab6956f3055129145acf51c8b5ab91048e3a81a60e43a8bc0f3a3af64736f6c63430008000033",
  "immutableReferences": {},
  "source": "// SPDX-License-Identifier: MIT\r\n\r\npragma solidity ^0.8.0;\r\nimport \"./SafeMath.sol\";\r\n\r\ncontract MarketplaceToken {\r\n    using SafeMath for uint256;\r\n    \r\n    string public name = \"MarketplaceToken\";\r\n    string public symbol = \"MPK\";\r\n\r\n    uint256 public totalSupply;\r\n    \r\n    event Transfer(address indexed _from,\r\n                   address indexed _to,\r\n                   uint256 _value);\r\n\r\n    event Approval(address indexed _owner,\r\n                   address indexed _spender,\r\n                   uint256 _value);\r\n\r\n    mapping (address => uint256) public balanceOf;\r\n    mapping (address => mapping(address => uint256)) public allowance;\r\n\r\n    uint8 private _decimals;\r\n\r\n    constructor () {\r\n        totalSupply = 0;\r\n        _decimals = 18;\r\n        _mint(address(this), 1000);\r\n    }\r\n\r\n    function decimals() public view returns (uint8) {\r\n        return _decimals;\r\n    }\r\n\r\n    function _mint(address account, uint256 amount) internal virtual {\r\n        require(account != address(0), \"ERC20: mint to the zero address\");\r\n\r\n        totalSupply = totalSupply.add(amount);\r\n        balanceOf[account] = balanceOf[account].add(amount);\r\n        emit Transfer(address(0), account, amount);\r\n    }\r\n\r\n    function transfer(address _to, uint256 _value) public returns (bool success) {\r\n        require(balanceOf[msg.sender] >= _value);\r\n\r\n        balanceOf[msg.sender] = balanceOf[msg.sender].sub(_value);\r\n        balanceOf[_to] = balanceOf[_to].add(_value);\r\n\r\n        emit Transfer(msg.sender, _to, _value);\r\n        return true;\r\n    }\r\n\r\n    function approve(address _spender, uint256 _value) public returns (bool success) {\r\n        allowance[msg.sender][_spender] = _value;\r\n        emit Approval(msg.sender, _spender, _value);\r\n        return true;\r\n    }\r\n\r\n    function transferFrom(address _from, address _to, uint256 _value) public returns (bool success) {\r\n        require(_value <= balanceOf[_from]);\r\n        require(_value <= allowance[_from][msg.sender]);\r\n\r\n        balanceOf[_from] = balanceOf[_from].sub(_value);\r\n        balanceOf[_to] = balanceOf[_to].add(_value);\r\n        allowance[_from][msg.sender] =  allowance[_from][msg.sender].sub(_value);\r\n        emit Transfer(_from, _to, _value);\r\n        return true;\r\n    }\r\n\r\n    function buyTokens(address recipient, uint256 amount) payable public returns(bool){\r\n        this.approve(recipient, amount);\r\n        return transferFrom(address(this), recipient, amount);\r\n    }\r\n\r\n}\r\n",
  "sourcePath": "/mnt/k/repos/Blockchain-FinalProject/contracts/token/MarketplaceToken.sol",
  "compiler": {
    "name": "solc",
    "version": "0.8.0+commit.c7dfd78e.Emscripten.clang"
  },
  "schemaVersion": "3.4.4",
  "updatedAt": "2022-01-28T20:24:40.746Z",
  "networkType": "ethereum",
  "devdoc": {
    "kind": "dev",
    "methods": {},
    "version": 1
  },
  "userdoc": {
    "kind": "user",
    "methods": {},
    "version": 1
  }
}