{
  "contractName": "Marketplace",
  "abi": [
    {
      "inputs": [
        {
          "internalType": "address",
          "name": "_tokenContractAddress",
          "type": "address"
        }
      ],
      "stateMutability": "nonpayable",
      "type": "constructor"
    },
    {
      "inputs": [
        {
          "internalType": "address",
          "name": "_address",
          "type": "address"
        }
      ],
      "name": "getUserRole",
      "outputs": [
        {
          "internalType": "enum Marketplace.Role",
          "name": "",
          "type": "uint8"
        }
      ],
      "stateMutability": "view",
      "type": "function",
      "constant": true
    },
    {
      "inputs": [
        {
          "internalType": "string",
          "name": "_name",
          "type": "string"
        },
        {
          "internalType": "address",
          "name": "_address",
          "type": "address"
        }
      ],
      "name": "addManager",
      "outputs": [],
      "stateMutability": "nonpayable",
      "type": "function"
    },
    {
      "inputs": [
        {
          "internalType": "string",
          "name": "_name",
          "type": "string"
        },
        {
          "internalType": "enum Marketplace.DomainExpertise",
          "name": "_domainExpertise",
          "type": "uint8"
        },
        {
          "internalType": "address",
          "name": "_address",
          "type": "address"
        }
      ],
      "name": "addFreelancer",
      "outputs": [],
      "stateMutability": "nonpayable",
      "type": "function"
    },
    {
      "inputs": [
        {
          "internalType": "string",
          "name": "_name",
          "type": "string"
        },
        {
          "internalType": "enum Marketplace.DomainExpertise",
          "name": "_domainExpertise",
          "type": "uint8"
        },
        {
          "internalType": "address",
          "name": "_address",
          "type": "address"
        }
      ],
      "name": "addEvaluator",
      "outputs": [],
      "stateMutability": "nonpayable",
      "type": "function"
    },
    {
      "inputs": [
        {
          "internalType": "string",
          "name": "_name",
          "type": "string"
        },
        {
          "internalType": "address",
          "name": "_address",
          "type": "address"
        }
      ],
      "name": "addInvestor",
      "outputs": [],
      "stateMutability": "nonpayable",
      "type": "function"
    },
    {
      "inputs": [
        {
          "internalType": "string",
          "name": "_description",
          "type": "string"
        },
        {
          "internalType": "uint256",
          "name": "_freelancerReward",
          "type": "uint256"
        },
        {
          "internalType": "uint256",
          "name": "_evaluatorReward",
          "type": "uint256"
        },
        {
          "internalType": "enum Marketplace.DomainExpertise",
          "name": "_domainExpertise",
          "type": "uint8"
        }
      ],
      "name": "createTask",
      "outputs": [],
      "stateMutability": "nonpayable",
      "type": "function"
    },
    {
      "inputs": [
        {
          "internalType": "uint256",
          "name": "_taskIndex",
          "type": "uint256"
        }
      ],
      "name": "getRemainingNecessaryFundingForTask",
      "outputs": [
        {
          "internalType": "uint256",
          "name": "",
          "type": "uint256"
        }
      ],
      "stateMutability": "view",
      "type": "function",
      "constant": true
    },
    {
      "inputs": [
        {
          "internalType": "uint256",
          "name": "_taskIndex",
          "type": "uint256"
        }
      ],
      "name": "getTaskState",
      "outputs": [
        {
          "internalType": "enum Marketplace.TaskState",
          "name": "",
          "type": "uint8"
        }
      ],
      "stateMutability": "view",
      "type": "function",
      "constant": true
    },
    {
      "inputs": [
        {
          "internalType": "uint256",
          "name": "_taskIndex",
          "type": "uint256"
        },
        {
          "internalType": "uint256",
          "name": "_amount",
          "type": "uint256"
        }
      ],
      "name": "fundTask",
      "outputs": [],
      "stateMutability": "payable",
      "type": "function",
      "payable": true
    },
    {
      "inputs": [
        {
          "internalType": "uint256",
          "name": "_taskIndex",
          "type": "uint256"
        },
        {
          "internalType": "uint256",
          "name": "_amount",
          "type": "uint256"
        }
      ],
      "name": "takeBackFunding",
      "outputs": [],
      "stateMutability": "nonpayable",
      "type": "function"
    },
    {
      "inputs": [
        {
          "internalType": "uint256",
          "name": "_taskIndex",
          "type": "uint256"
        }
      ],
      "name": "deteleTask",
      "outputs": [],
      "stateMutability": "nonpayable",
      "type": "function"
    },
    {
      "inputs": [
        {
          "internalType": "uint256",
          "name": "_taskIndex",
          "type": "uint256"
        },
        {
          "internalType": "address",
          "name": "_evaluatorAddress",
          "type": "address"
        }
      ],
      "name": "pickEvaluator",
      "outputs": [],
      "stateMutability": "nonpayable",
      "type": "function"
    },
    {
      "inputs": [
        {
          "internalType": "uint256",
          "name": "_taskIndex",
          "type": "uint256"
        },
        {
          "internalType": "uint256",
          "name": "_applicationIndex",
          "type": "uint256"
        }
      ],
      "name": "pickFreelancer",
      "outputs": [],
      "stateMutability": "nonpayable",
      "type": "function"
    },
    {
      "inputs": [
        {
          "internalType": "uint256",
          "name": "_taskIndex",
          "type": "uint256"
        }
      ],
      "name": "applyForATask",
      "outputs": [],
      "stateMutability": "payable",
      "type": "function",
      "payable": true
    },
    {
      "inputs": [
        {
          "internalType": "uint256",
          "name": "_taskIndex",
          "type": "uint256"
        }
      ],
      "name": "declareTaskFinished",
      "outputs": [],
      "stateMutability": "payable",
      "type": "function",
      "payable": true
    },
    {
      "inputs": [
        {
          "internalType": "uint256",
          "name": "_taskIndex",
          "type": "uint256"
        }
      ],
      "name": "approveTask",
      "outputs": [],
      "stateMutability": "payable",
      "type": "function",
      "payable": true
    },
    {
      "inputs": [
        {
          "internalType": "uint256",
          "name": "_taskIndex",
          "type": "uint256"
        }
      ],
      "name": "rejectTask",
      "outputs": [],
      "stateMutability": "payable",
      "type": "function",
      "payable": true
    },
    {
      "inputs": [
        {
          "internalType": "uint256",
          "name": "_taskIndex",
          "type": "uint256"
        }
      ],
      "name": "approveTaskInArbitrage",
      "outputs": [],
      "stateMutability": "payable",
      "type": "function",
      "payable": true
    },
    {
      "inputs": [
        {
          "internalType": "uint256",
          "name": "_taskIndex",
          "type": "uint256"
        }
      ],
      "name": "rejectTaskInArbitrage",
      "outputs": [],
      "stateMutability": "payable",
      "type": "function",
      "payable": true
    }
  ],
  "bytecode": "0x60806040523480156200001157600080fd5b5060405162005902380380620059028339818101604052810190620000379190620000df565b33600760006101000a81548173ffffffffffffffffffffffffffffffffffffffff021916908373ffffffffffffffffffffffffffffffffffffffff160217905550600060088190555080600960006101000a81548173ffffffffffffffffffffffffffffffffffffffff021916908373ffffffffffffffffffffffffffffffffffffffff1602179055505062000159565b600081519050620000d9816200013f565b92915050565b600060208284031215620000f257600080fd5b60006200010284828501620000c8565b91505092915050565b600062000118826200011f565b9050919050565b600073ffffffffffffffffffffffffffffffffffffffff82169050919050565b6200014a816200010b565b81146200015657600080fd5b50565b61579980620001696000396000f3fe6080604052600436106101135760003560e01c80635941e710116100a0578063a1e939f611610064578063a1e939f614610330578063b6146f3a14610359578063b9fc4b3314610382578063f0c7077a1461039e578063ffcce776146103c757610113565b80635941e7101461027d5780637d81b40b14610299578063869c663c146102b55780638d1354cd146102de57806391a7ab7e1461030757610113565b806327820851116100e757806327820851146101a25780632ea46474146101df5780633b2c1e391461020857806340bc1387146102455780634d4780d81461026157610113565b80621a1c921461011857806307f42f42146101415780630a07fae61461016a578063188c760714610186575b600080fd5b34801561012457600080fd5b5061013f600480360381019061013a91906148fc565b610404565b005b34801561014d57600080fd5b50610168600480360381019061016391906148fc565b6105a7565b005b610184600480360381019061017f9190614a40565b610748565b005b6101a0600480360381019061019b9190614a40565b610c4d565b005b3480156101ae57600080fd5b506101c960048036038101906101c491906148aa565b611132565b6040516101d69190615146565b60405180910390f35b3480156101eb57600080fd5b5061020660048036038101906102019190614a40565b6112b5565b005b34801561021457600080fd5b5061022f600480360381019061022a9190614a40565b6116fe565b60405161023c919061543c565b60405180910390f35b61025f600480360381019061025a9190614a40565b6117a4565b005b61027b60048036038101906102769190614aa5565b611c42565b005b61029760048036038101906102929190614a40565b61218e565b005b6102b360048036038101906102ae9190614a40565b612788565b005b3480156102c157600080fd5b506102dc60048036038101906102d79190614aa5565b612a43565b005b3480156102ea57600080fd5b5061030560048036038101906103009190614aa5565b612fd3565b005b34801561031357600080fd5b5061032e60048036038101906103299190614a69565b613375565b005b34801561033c57600080fd5b5061035760048036038101906103529190614954565b613803565b005b34801561036557600080fd5b50610380600480360381019061037b91906149c0565b613a4c565b005b61039c60048036038101906103979190614a40565b613e48565b005b3480156103aa57600080fd5b506103c560048036038101906103c09190614954565b614103565b005b3480156103d357600080fd5b506103ee60048036038101906103e99190614a40565b61433b565b6040516103fb9190615161565b60405180910390f35b60001515600360008373ffffffffffffffffffffffffffffffffffffffff1673ffffffffffffffffffffffffffffffffffffffff16815260200190815260200160002060010160149054906101000a900460ff1615151461046457600080fd5b604051806060016040528084848080601f016020809104026020016040519081016040528093929190818152602001838380828437600081840152601f19601f8201169050808301925050505050505081526020018273ffffffffffffffffffffffffffffffffffffffff16815260200160011515815250600360008373ffffffffffffffffffffffffffffffffffffffff1673ffffffffffffffffffffffffffffffffffffffff1681526020019081526020016000206000820151816000019080519060200190610537929190614769565b5060208201518160010160006101000a81548173ffffffffffffffffffffffffffffffffffffffff021916908373ffffffffffffffffffffffffffffffffffffffff16021790555060408201518160010160146101000a81548160ff021916908315150217905550905050505050565b600015156000808373ffffffffffffffffffffffffffffffffffffffff1673ffffffffffffffffffffffffffffffffffffffff16815260200190815260200160002060010160149054906101000a900460ff1615151461060657600080fd5b604051806060016040528084848080601f016020809104026020016040519081016040528093929190818152602001838380828437600081840152601f19601f8201169050808301925050505050505081526020018273ffffffffffffffffffffffffffffffffffffffff168152602001600115158152506000808373ffffffffffffffffffffffffffffffffffffffff1673ffffffffffffffffffffffffffffffffffffffff16815260200190815260200160002060008201518160000190805190602001906106d8929190614769565b5060208201518160010160006101000a81548173ffffffffffffffffffffffffffffffffffffffff021916908373ffffffffffffffffffffffffffffffffffffffff16021790555060408201518160010160146101000a81548160ff021916908315150217905550905050505050565b600115156000803373ffffffffffffffffffffffffffffffffffffffff1673ffffffffffffffffffffffffffffffffffffffff16815260200190815260200160002060010160149054906101000a900460ff161515146107dd576040517f08c379a00000000000000000000000000000000000000000000000000000000081526004016107d4906152fc565b60405180910390fd5b6008548110610821576040517f08c379a00000000000000000000000000000000000000000000000000000000081526004016108189061531c565b60405180910390fd5b6004600881111561085b577f4e487b7100000000000000000000000000000000000000000000000000000000600052602160045260246000fd5b6004600083815260200190815260200160002060080160009054906101000a900460ff1660088111156108b7577f4e487b7100000000000000000000000000000000000000000000000000000000600052602160045260246000fd5b146108f7576040517f08c379a00000000000000000000000000000000000000000000000000000000081526004016108ee9061529c565b60405180910390fd5b3373ffffffffffffffffffffffffffffffffffffffff166004600083815260200190815260200160002060040160019054906101000a900473ffffffffffffffffffffffffffffffffffffffff1673ffffffffffffffffffffffffffffffffffffffff161461099b576040517f08c379a00000000000000000000000000000000000000000000000000000000081526004016109929061539c565b60405180910390fd5b60006004600083815260200190815260200160002060010154600260046000858152602001908152602001600020600201546109d791906154be565b6109e19190615468565b9050600960009054906101000a900473ffffffffffffffffffffffffffffffffffffffff1673ffffffffffffffffffffffffffffffffffffffff166323b872dd306004600086815260200190815260200160002060060160009054906101000a900473ffffffffffffffffffffffffffffffffffffffff16846040518463ffffffff1660e01b8152600401610a789392919061510f565b602060405180830381600087803b158015610a9257600080fd5b505af1158015610aa6573d6000803e3d6000fd5b505050506040513d601f19601f82011682018060405250810190610aca91906148d3565b610ad357600080fd5b600a600160006004600086815260200190815260200160002060060160009054906101000a900473ffffffffffffffffffffffffffffffffffffffff1673ffffffffffffffffffffffffffffffffffffffff1673ffffffffffffffffffffffffffffffffffffffff168152602001908152602001600020600201541015610be45760018060006004600086815260200190815260200160002060060160009054906101000a900473ffffffffffffffffffffffffffffffffffffffff1673ffffffffffffffffffffffffffffffffffffffff1673ffffffffffffffffffffffffffffffffffffffff1681526020019081526020016000206002016000828254610bdc9190615468565b925050819055505b60066004600084815260200190815260200160002060080160006101000a81548160ff02191690836008811115610c44577f4e487b7100000000000000000000000000000000000000000000000000000000600052602160045260246000fd5b02179055505050565b60011515600260003373ffffffffffffffffffffffffffffffffffffffff1673ffffffffffffffffffffffffffffffffffffffff16815260200190815260200160002060010160159054906101000a900460ff16151514610ce3576040517f08c379a0000000000000000000000000000000000000000000000000000000008152600401610cda906152bc565b60405180910390fd5b6008548110610d27576040517f08c379a0000000000000000000000000000000000000000000000000000000008152600401610d1e9061531c565b60405180910390fd5b60056008811115610d61577f4e487b7100000000000000000000000000000000000000000000000000000000600052602160045260246000fd5b6004600083815260200190815260200160002060080160009054906101000a900460ff166008811115610dbd577f4e487b7100000000000000000000000000000000000000000000000000000000600052602160045260246000fd5b14610dfd576040517f08c379a0000000000000000000000000000000000000000000000000000000008152600401610df49061529c565b60405180910390fd5b3373ffffffffffffffffffffffffffffffffffffffff166004600083815260200190815260200160002060050160009054906101000a900473ffffffffffffffffffffffffffffffffffffffff1673ffffffffffffffffffffffffffffffffffffffff1614610ea1576040517f08c379a0000000000000000000000000000000000000000000000000000000008152600401610e989061517c565b60405180910390fd5b600960009054906101000a900473ffffffffffffffffffffffffffffffffffffffff1673ffffffffffffffffffffffffffffffffffffffff166323b872dd306004600085815260200190815260200160002060050160009054906101000a900473ffffffffffffffffffffffffffffffffffffffff1660046000868152602001908152602001600020600201546040518463ffffffff1660e01b8152600401610f4c9392919061510f565b602060405180830381600087803b158015610f6657600080fd5b505af1158015610f7a573d6000803e3d6000fd5b505050506040513d601f19601f82011682018060405250810190610f9e91906148d3565b610fa757600080fd5b610fb0816143ac565b610fb957600080fd5b6000600160006004600085815260200190815260200160002060060160009054906101000a900473ffffffffffffffffffffffffffffffffffffffff1673ffffffffffffffffffffffffffffffffffffffff1673ffffffffffffffffffffffffffffffffffffffff1681526020019081526020016000206002015411156110ca5760018060006004600085815260200190815260200160002060060160009054906101000a900473ffffffffffffffffffffffffffffffffffffffff1673ffffffffffffffffffffffffffffffffffffffff1673ffffffffffffffffffffffffffffffffffffffff16815260200190815260200160002060020160008282546110c29190615518565b925050819055505b60076004600083815260200190815260200160002060080160006101000a81548160ff0219169083600881111561112a577f4e487b7100000000000000000000000000000000000000000000000000000000600052602160045260246000fd5b021790555050565b60008060008373ffffffffffffffffffffffffffffffffffffffff1673ffffffffffffffffffffffffffffffffffffffff16815260200190815260200160002060010160149054906101000a900460ff161561119157600390506112b0565b600360008373ffffffffffffffffffffffffffffffffffffffff1673ffffffffffffffffffffffffffffffffffffffff16815260200190815260200160002060010160149054906101000a900460ff16156111ef57600090506112b0565b600260008373ffffffffffffffffffffffffffffffffffffffff1673ffffffffffffffffffffffffffffffffffffffff16815260200190815260200160002060010160159054906101000a900460ff161561124d57600290506112b0565b600160008373ffffffffffffffffffffffffffffffffffffffff1673ffffffffffffffffffffffffffffffffffffffff16815260200190815260200160002060030160149054906101000a900460ff16156112ab57600190506112b0565b600590505b919050565b600115156000803373ffffffffffffffffffffffffffffffffffffffff1673ffffffffffffffffffffffffffffffffffffffff16815260200190815260200160002060010160149054906101000a900460ff1615151461134a576040517f08c379a0000000000000000000000000000000000000000000000000000000008152600401611341906152fc565b60405180910390fd5b600854811061138e576040517f08c379a00000000000000000000000000000000000000000000000000000000081526004016113859061531c565b60405180910390fd5b600060088111156113c8577f4e487b7100000000000000000000000000000000000000000000000000000000600052602160045260246000fd5b6004600083815260200190815260200160002060080160009054906101000a900460ff166008811115611424577f4e487b7100000000000000000000000000000000000000000000000000000000600052602160045260246000fd5b14611464576040517f08c379a000000000000000000000000000000000000000000000000000000000815260040161145b906153bc565b60405180910390fd5b3373ffffffffffffffffffffffffffffffffffffffff166004600083815260200190815260200160002060040160019054906101000a900473ffffffffffffffffffffffffffffffffffffffff1673ffffffffffffffffffffffffffffffffffffffff1614611508576040517f08c379a00000000000000000000000000000000000000000000000000000000081526004016114ff9061533c565b60405180910390fd5b60005b600460008381526020019081526020016000206009015481101561169557600060056000848152602001908152602001600020600083815260200190815260200160002060010154111561168257600960009054906101000a900473ffffffffffffffffffffffffffffffffffffffff1673ffffffffffffffffffffffffffffffffffffffff166323b872dd3060056000868152602001908152602001600020600085815260200190815260200160002060000160009054906101000a900473ffffffffffffffffffffffffffffffffffffffff16600560008781526020019081526020016000206000868152602001908152602001600020600101546040518463ffffffff1660e01b81526004016116269392919061510f565b602060405180830381600087803b15801561164057600080fd5b505af1158015611654573d6000803e3d6000fd5b505050506040513d601f19601f8201168201806040525081019061167891906148d3565b61168157600080fd5b5b808061168d90615610565b91505061150b565b5060086004600083815260200190815260200160002060080160006101000a81548160ff021916908360088111156116f6577f4e487b7100000000000000000000000000000000000000000000000000000000600052602160045260246000fd5b021790555050565b60006008548210611744576040517f08c379a000000000000000000000000000000000000000000000000000000000815260040161173b9061531c565b60405180910390fd5b6004600083815260200190815260200160002060030154600460008481526020019081526020016000206001015460046000858152602001908152602001600020600201546117939190615468565b61179d9190615518565b9050919050565b60011515600160003373ffffffffffffffffffffffffffffffffffffffff1673ffffffffffffffffffffffffffffffffffffffff16815260200190815260200160002060030160149054906101000a900460ff1615151461183a576040517f08c379a0000000000000000000000000000000000000000000000000000000008152600401611831906151dc565b60405180910390fd5b600854811061187e576040517f08c379a00000000000000000000000000000000000000000000000000000000081526004016118759061531c565b60405180910390fd5b600260088111156118b8577f4e487b7100000000000000000000000000000000000000000000000000000000600052602160045260246000fd5b6004600083815260200190815260200160002060080160009054906101000a900460ff166008811115611914577f4e487b7100000000000000000000000000000000000000000000000000000000600052602160045260246000fd5b14611954576040517f08c379a000000000000000000000000000000000000000000000000000000000815260040161194b906153fc565b60405180910390fd5b600160003373ffffffffffffffffffffffffffffffffffffffff1673ffffffffffffffffffffffffffffffffffffffff16815260200190815260200160002060010160009054906101000a900460ff1660038111156119dc577f4e487b7100000000000000000000000000000000000000000000000000000000600052602160045260246000fd5b6004600083815260200190815260200160002060040160009054906101000a900460ff166003811115611a38577f4e487b7100000000000000000000000000000000000000000000000000000000600052602160045260246000fd5b14611a78576040517f08c379a0000000000000000000000000000000000000000000000000000000008152600401611a6f906151bc565b60405180910390fd5b60001515611a868233614548565b151514611ac8576040517f08c379a0000000000000000000000000000000000000000000000000000000008152600401611abf9061519c565b60405180910390fd5b600960009054906101000a900473ffffffffffffffffffffffffffffffffffffffff1673ffffffffffffffffffffffffffffffffffffffff166323b872dd333060046000868152602001908152602001600020600201546040518463ffffffff1660e01b8152600401611b3d9392919061510f565b602060405180830381600087803b158015611b5757600080fd5b505af1158015611b6b573d6000803e3d6000fd5b505050506040513d601f19601f82011682018060405250810190611b8f91906148d3565b611b9857600080fd5b3360066000838152602001908152602001600020600060046000858152602001908152602001600020600a0154815260200190815260200160002060006101000a81548173ffffffffffffffffffffffffffffffffffffffff021916908373ffffffffffffffffffffffffffffffffffffffff160217905550600160046000838152602001908152602001600020600a016000828254611c389190615468565b9250508190555050565b60011515600360003373ffffffffffffffffffffffffffffffffffffffff1673ffffffffffffffffffffffffffffffffffffffff16815260200190815260200160002060010160149054906101000a900460ff16151514611cd8576040517f08c379a0000000000000000000000000000000000000000000000000000000008152600401611ccf9061523c565b60405180910390fd5b6008548210611d1c576040517f08c379a0000000000000000000000000000000000000000000000000000000008152600401611d139061531c565b60405180910390fd5b60006008811115611d56577f4e487b7100000000000000000000000000000000000000000000000000000000600052602160045260246000fd5b6004600084815260200190815260200160002060080160009054906101000a900460ff166008811115611db2577f4e487b7100000000000000000000000000000000000000000000000000000000600052602160045260246000fd5b14611df2576040517f08c379a0000000000000000000000000000000000000000000000000000000008152600401611de9906152dc565b60405180910390fd5b60008111611e35576040517f08c379a0000000000000000000000000000000000000000000000000000000008152600401611e2c9061525c565b60405180910390fd5b60046000838152602001908152602001600020600101546004600084815260200190815260200160002060020154611e6d9190615468565b816004600085815260200190815260200160002060030154611e8f9190615468565b11611e9957600080fd5b600960009054906101000a900473ffffffffffffffffffffffffffffffffffffffff1673ffffffffffffffffffffffffffffffffffffffff166323b872dd3330846040518463ffffffff1660e01b8152600401611ef89392919061510f565b602060405180830381600087803b158015611f1257600080fd5b505af1158015611f26573d6000803e3d6000fd5b505050506040513d601f19601f82011682018060405250810190611f4a91906148d3565b611f5357600080fd5b6000611f5f8333614650565b905060008114156120565760405180604001604052803373ffffffffffffffffffffffffffffffffffffffff168152602001838152506005600085815260200190815260200160002060006004600087815260200190815260200160002060090154815260200190815260200160002060008201518160000160006101000a81548173ffffffffffffffffffffffffffffffffffffffff021916908373ffffffffffffffffffffffffffffffffffffffff16021790555060208201518160010155905050600160046000858152602001908152602001600020600901600082825461204a9190615468565b925050819055506120a1565b816005600085815260200190815260200160002060006001846120799190615518565b815260200190815260200160002060010160008282546120999190615468565b925050819055505b816004600085815260200190815260200160002060030160008282546120c79190615468565b92505081905550600460008481526020019081526020016000206001015460046000858152602001908152602001600020600201546121069190615468565b600460008581526020019081526020016000206003015414156121895760016004600085815260200190815260200160002060080160006101000a81548160ff02191690836008811115612183577f4e487b7100000000000000000000000000000000000000000000000000000000600052602160045260246000fd5b02179055505b505050565b60011515600260003373ffffffffffffffffffffffffffffffffffffffff1673ffffffffffffffffffffffffffffffffffffffff16815260200190815260200160002060010160159054906101000a900460ff16151514612224576040517f08c379a000000000000000000000000000000000000000000000000000000000815260040161221b906152bc565b60405180910390fd5b6008548110612268576040517f08c379a000000000000000000000000000000000000000000000000000000000815260040161225f9061531c565b60405180910390fd5b600560088111156122a2577f4e487b7100000000000000000000000000000000000000000000000000000000600052602160045260246000fd5b6004600083815260200190815260200160002060080160009054906101000a900460ff1660088111156122fe577f4e487b7100000000000000000000000000000000000000000000000000000000600052602160045260246000fd5b1461233e576040517f08c379a00000000000000000000000000000000000000000000000000000000081526004016123359061529c565b60405180910390fd5b3373ffffffffffffffffffffffffffffffffffffffff166004600083815260200190815260200160002060050160009054906101000a900473ffffffffffffffffffffffffffffffffffffffff1673ffffffffffffffffffffffffffffffffffffffff16146123e2576040517f08c379a00000000000000000000000000000000000000000000000000000000081526004016123d99061517c565b60405180910390fd5b600960009054906101000a900473ffffffffffffffffffffffffffffffffffffffff1673ffffffffffffffffffffffffffffffffffffffff166323b872dd306004600085815260200190815260200160002060050160009054906101000a900473ffffffffffffffffffffffffffffffffffffffff1660046000868152602001908152602001600020600201546040518463ffffffff1660e01b815260040161248d9392919061510f565b602060405180830381600087803b1580156124a757600080fd5b505af11580156124bb573d6000803e3d6000fd5b505050506040513d601f19601f820116820180604052508101906124df91906148d3565b6124e857600080fd5b600960009054906101000a900473ffffffffffffffffffffffffffffffffffffffff1673ffffffffffffffffffffffffffffffffffffffff166323b872dd306004600085815260200190815260200160002060050160009054906101000a900473ffffffffffffffffffffffffffffffffffffffff16600460008681526020019081526020016000206001015460046000878152602001908152602001600020600201546125969190615468565b6040518463ffffffff1660e01b81526004016125b49392919061510f565b602060405180830381600087803b1580156125ce57600080fd5b505af11580156125e2573d6000803e3d6000fd5b505050506040513d601f19601f8201168201806040525081019061260691906148d3565b61260f57600080fd5b600a600160006004600085815260200190815260200160002060060160009054906101000a900473ffffffffffffffffffffffffffffffffffffffff1673ffffffffffffffffffffffffffffffffffffffff1673ffffffffffffffffffffffffffffffffffffffff1681526020019081526020016000206002015410156127205760018060006004600085815260200190815260200160002060060160009054906101000a900473ffffffffffffffffffffffffffffffffffffffff1673ffffffffffffffffffffffffffffffffffffffff1673ffffffffffffffffffffffffffffffffffffffff16815260200190815260200160002060020160008282546127189190615468565b925050819055505b60066004600083815260200190815260200160002060080160006101000a81548160ff02191690836008811115612780577f4e487b7100000000000000000000000000000000000000000000000000000000600052602160045260246000fd5b021790555050565b600115156000803373ffffffffffffffffffffffffffffffffffffffff1673ffffffffffffffffffffffffffffffffffffffff16815260200190815260200160002060010160149054906101000a900460ff1615151461281d576040517f08c379a0000000000000000000000000000000000000000000000000000000008152600401612814906152fc565b60405180910390fd5b6008548110612861576040517f08c379a00000000000000000000000000000000000000000000000000000000081526004016128589061531c565b60405180910390fd5b6004600881111561289b577f4e487b7100000000000000000000000000000000000000000000000000000000600052602160045260246000fd5b6004600083815260200190815260200160002060080160009054906101000a900460ff1660088111156128f7577f4e487b7100000000000000000000000000000000000000000000000000000000600052602160045260246000fd5b14612937576040517f08c379a000000000000000000000000000000000000000000000000000000000815260040161292e9061529c565b60405180910390fd5b3373ffffffffffffffffffffffffffffffffffffffff166004600083815260200190815260200160002060040160019054906101000a900473ffffffffffffffffffffffffffffffffffffffff1673ffffffffffffffffffffffffffffffffffffffff16146129db576040517f08c379a00000000000000000000000000000000000000000000000000000000081526004016129d29061539c565b60405180910390fd5b60056004600083815260200190815260200160002060080160006101000a81548160ff02191690836008811115612a3b577f4e487b7100000000000000000000000000000000000000000000000000000000600052602160045260246000fd5b021790555050565b600115156000803373ffffffffffffffffffffffffffffffffffffffff1673ffffffffffffffffffffffffffffffffffffffff16815260200190815260200160002060010160149054906101000a900460ff16151514612ad8576040517f08c379a0000000000000000000000000000000000000000000000000000000008152600401612acf906152fc565b60405180910390fd5b6008548210612b1c576040517f08c379a0000000000000000000000000000000000000000000000000000000008152600401612b139061531c565b60405180910390fd5b60026008811115612b56577f4e487b7100000000000000000000000000000000000000000000000000000000600052602160045260246000fd5b6004600084815260200190815260200160002060080160009054906101000a900460ff166008811115612bb2577f4e487b7100000000000000000000000000000000000000000000000000000000600052602160045260246000fd5b14612bf2576040517f08c379a0000000000000000000000000000000000000000000000000000000008152600401612be99061521c565b60405180910390fd5b3373ffffffffffffffffffffffffffffffffffffffff166004600084815260200190815260200160002060040160019054906101000a900473ffffffffffffffffffffffffffffffffffffffff1673ffffffffffffffffffffffffffffffffffffffff1614612c96576040517f08c379a0000000000000000000000000000000000000000000000000000000008152600401612c8d9061533c565b60405180910390fd5b8060046000848152602001908152602001600020600a01541015612cef576040517f08c379a0000000000000000000000000000000000000000000000000000000008152600401612ce6906153dc565b60405180910390fd5b60066000838152602001908152602001600020600082815260200190815260200160002060009054906101000a900473ffffffffffffffffffffffffffffffffffffffff166004600084815260200190815260200160002060060160006101000a81548173ffffffffffffffffffffffffffffffffffffffff021916908373ffffffffffffffffffffffffffffffffffffffff16021790555060005b60046000848152602001908152602001600020600a0154811015612ed057600960009054906101000a900473ffffffffffffffffffffffffffffffffffffffff1673ffffffffffffffffffffffffffffffffffffffff166323b872dd3060066000878152602001908152602001600020600085815260200190815260200160002060009054906101000a900473ffffffffffffffffffffffffffffffffffffffff1660046000888152602001908152602001600020600201546040518463ffffffff1660e01b8152600401612e629392919061510f565b602060405180830381600087803b158015612e7c57600080fd5b505af1158015612e90573d6000803e3d6000fd5b505050506040513d601f19601f82011682018060405250810190612eb491906148d3565b612ebd57600080fd5b8080612ec890615610565b915050612d8b565b5060066000838152602001908152602001600020600082815260200190815260200160002060009054906101000a900473ffffffffffffffffffffffffffffffffffffffff166004600084815260200190815260200160002060060160006101000a81548173ffffffffffffffffffffffffffffffffffffffff021916908373ffffffffffffffffffffffffffffffffffffffff16021790555060036004600084815260200190815260200160002060080160006101000a81548160ff02191690836008811115612fca577f4e487b7100000000000000000000000000000000000000000000000000000000600052602160045260246000fd5b02179055505050565b60011515600360003373ffffffffffffffffffffffffffffffffffffffff1673ffffffffffffffffffffffffffffffffffffffff16815260200190815260200160002060010160149054906101000a900460ff16151514613069576040517f08c379a00000000000000000000000000000000000000000000000000000000081526004016130609061523c565b60405180910390fd5b60085482106130ad576040517f08c379a00000000000000000000000000000000000000000000000000000000081526004016130a49061531c565b60405180910390fd5b600060088111156130e7577f4e487b7100000000000000000000000000000000000000000000000000000000600052602160045260246000fd5b6004600084815260200190815260200160002060080160009054906101000a900460ff166008811115613143577f4e487b7100000000000000000000000000000000000000000000000000000000600052602160045260246000fd5b14613183576040517f08c379a000000000000000000000000000000000000000000000000000000000815260040161317a906153bc565b60405180910390fd5b600081116131c6576040517f08c379a00000000000000000000000000000000000000000000000000000000081526004016131bd9061537c565b60405180910390fd5b60006131d28333614650565b90506000811415801561320c5750816005600085815260200190815260200160002060008381526020019081526020016000206001015410155b61324b576040517f08c379a00000000000000000000000000000000000000000000000000000000081526004016132429061527c565b60405180910390fd5b600960009054906101000a900473ffffffffffffffffffffffffffffffffffffffff1673ffffffffffffffffffffffffffffffffffffffff166323b872dd3033856040518463ffffffff1660e01b81526004016132aa9392919061510f565b602060405180830381600087803b1580156132c457600080fd5b505af11580156132d8573d6000803e3d6000fd5b505050506040513d601f19601f820116820180604052508101906132fc91906148d3565b61330557600080fd5b81600560008581526020019081526020016000206000838152602001908152602001600020600101600082825461333c9190615518565b92505081905550816004600085815260200190815260200160002060030160008282546133699190615518565b92505081905550505050565b600115156000803373ffffffffffffffffffffffffffffffffffffffff1673ffffffffffffffffffffffffffffffffffffffff16815260200190815260200160002060010160149054906101000a900460ff1615151461340a576040517f08c379a0000000000000000000000000000000000000000000000000000000008152600401613401906152fc565b60405180910390fd5b600854821061344e576040517f08c379a00000000000000000000000000000000000000000000000000000000081526004016134459061531c565b60405180910390fd5b60016008811115613488577f4e487b7100000000000000000000000000000000000000000000000000000000600052602160045260246000fd5b6004600084815260200190815260200160002060080160009054906101000a900460ff1660088111156134e4577f4e487b7100000000000000000000000000000000000000000000000000000000600052602160045260246000fd5b14613524576040517f08c379a000000000000000000000000000000000000000000000000000000000815260040161351b906153fc565b60405180910390fd5b3373ffffffffffffffffffffffffffffffffffffffff166004600084815260200190815260200160002060040160019054906101000a900473ffffffffffffffffffffffffffffffffffffffff1673ffffffffffffffffffffffffffffffffffffffff16146135c8576040517f08c379a00000000000000000000000000000000000000000000000000000000081526004016135bf9061533c565b60405180910390fd5b600260008273ffffffffffffffffffffffffffffffffffffffff1673ffffffffffffffffffffffffffffffffffffffff16815260200190815260200160002060010160159054906101000a900460ff16613657576040517f08c379a000000000000000000000000000000000000000000000000000000000815260040161364e906151fc565b60405180910390fd5b600260008273ffffffffffffffffffffffffffffffffffffffff1673ffffffffffffffffffffffffffffffffffffffff16815260200190815260200160002060010160009054906101000a900460ff1660038111156136df577f4e487b7100000000000000000000000000000000000000000000000000000000600052602160045260246000fd5b6004600084815260200190815260200160002060040160009054906101000a900460ff16600381111561373b577f4e487b7100000000000000000000000000000000000000000000000000000000600052602160045260246000fd5b1461374557600080fd5b806004600084815260200190815260200160002060050160006101000a81548173ffffffffffffffffffffffffffffffffffffffff021916908373ffffffffffffffffffffffffffffffffffffffff16021790555060026004600084815260200190815260200160002060080160006101000a81548160ff021916908360088111156137fa577f4e487b7100000000000000000000000000000000000000000000000000000000600052602160045260246000fd5b02179055505050565b60001515600160008373ffffffffffffffffffffffffffffffffffffffff1673ffffffffffffffffffffffffffffffffffffffff16815260200190815260200160002060030160149054906101000a900460ff1615151461386357600080fd5b6040518060a0016040528085858080601f016020809104026020016040519081016040528093929190818152602001838380828437600081840152601f19601f8201169050808301925050505050505081526020018360038111156138f1577f4e487b7100000000000000000000000000000000000000000000000000000000600052602160045260246000fd5b8152602001600581526020018273ffffffffffffffffffffffffffffffffffffffff16815260200160011515815250600160008373ffffffffffffffffffffffffffffffffffffffff1673ffffffffffffffffffffffffffffffffffffffff168152602001908152602001600020600082015181600001908051906020019061397b929190614769565b5060208201518160010160006101000a81548160ff021916908360038111156139cd577f4e487b7100000000000000000000000000000000000000000000000000000000600052602160045260246000fd5b02179055506040820151816002015560608201518160030160006101000a81548173ffffffffffffffffffffffffffffffffffffffff021916908373ffffffffffffffffffffffffffffffffffffffff16021790555060808201518160030160146101000a81548160ff02191690831515021790555090505050505050565b600115156000803373ffffffffffffffffffffffffffffffffffffffff1673ffffffffffffffffffffffffffffffffffffffff16815260200190815260200160002060010160149054906101000a900460ff16151514613ae1576040517f08c379a0000000000000000000000000000000000000000000000000000000008152600401613ad8906152fc565b60405180910390fd5b60405180610180016040528086868080601f016020809104026020016040519081016040528093929190818152602001838380828437600081840152601f19601f82011690508083019250505050505050815260200184815260200183815260200160008152602001826003811115613b83577f4e487b7100000000000000000000000000000000000000000000000000000000600052602160045260246000fd5b81526020013373ffffffffffffffffffffffffffffffffffffffff168152602001600073ffffffffffffffffffffffffffffffffffffffff168152602001600073ffffffffffffffffffffffffffffffffffffffff168152602001600854815260200160006008811115613c20577f4e487b7100000000000000000000000000000000000000000000000000000000600052602160045260246000fd5b81526020016000815260200160008152506004600060085481526020019081526020016000206000820151816000019080519060200190613c62929190614769565b5060208201518160010155604082015181600201556060820151816003015560808201518160040160006101000a81548160ff02191690836003811115613cd2577f4e487b7100000000000000000000000000000000000000000000000000000000600052602160045260246000fd5b021790555060a08201518160040160016101000a81548173ffffffffffffffffffffffffffffffffffffffff021916908373ffffffffffffffffffffffffffffffffffffffff16021790555060c08201518160050160006101000a81548173ffffffffffffffffffffffffffffffffffffffff021916908373ffffffffffffffffffffffffffffffffffffffff16021790555060e08201518160060160006101000a81548173ffffffffffffffffffffffffffffffffffffffff021916908373ffffffffffffffffffffffffffffffffffffffff16021790555061010082015181600701556101208201518160080160006101000a81548160ff02191690836008811115613e09577f4e487b7100000000000000000000000000000000000000000000000000000000600052602160045260246000fd5b0217905550610140820151816009015561016082015181600a0155905050600160086000828254613e3a9190615468565b925050819055505050505050565b60011515600160003373ffffffffffffffffffffffffffffffffffffffff1673ffffffffffffffffffffffffffffffffffffffff16815260200190815260200160002060030160149054906101000a900460ff16151514613ede576040517f08c379a0000000000000000000000000000000000000000000000000000000008152600401613ed5906151dc565b60405180910390fd5b6008548110613f22576040517f08c379a0000000000000000000000000000000000000000000000000000000008152600401613f199061531c565b60405180910390fd5b60036008811115613f5c577f4e487b7100000000000000000000000000000000000000000000000000000000600052602160045260246000fd5b6004600083815260200190815260200160002060080160009054906101000a900460ff166008811115613fb8577f4e487b7100000000000000000000000000000000000000000000000000000000600052602160045260246000fd5b14613ff8576040517f08c379a0000000000000000000000000000000000000000000000000000000008152600401613fef9061535c565b60405180910390fd5b3373ffffffffffffffffffffffffffffffffffffffff166004600083815260200190815260200160002060060160009054906101000a900473ffffffffffffffffffffffffffffffffffffffff1673ffffffffffffffffffffffffffffffffffffffff161461409c576040517f08c379a00000000000000000000000000000000000000000000000000000000081526004016140939061541c565b60405180910390fd5b600480600083815260200190815260200160002060080160006101000a81548160ff021916908360088111156140fb577f4e487b7100000000000000000000000000000000000000000000000000000000600052602160045260246000fd5b021790555050565b60001515600260008373ffffffffffffffffffffffffffffffffffffffff1673ffffffffffffffffffffffffffffffffffffffff16815260200190815260200160002060010160159054906101000a900460ff1615151461416357600080fd5b604051806080016040528085858080601f016020809104026020016040519081016040528093929190818152602001838380828437600081840152601f19601f8201169050808301925050505050505081526020018360038111156141f1577f4e487b7100000000000000000000000000000000000000000000000000000000600052602160045260246000fd5b81526020018273ffffffffffffffffffffffffffffffffffffffff16815260200160011515815250600260008373ffffffffffffffffffffffffffffffffffffffff1673ffffffffffffffffffffffffffffffffffffffff1681526020019081526020016000206000820151816000019080519060200190614274929190614769565b5060208201518160010160006101000a81548160ff021916908360038111156142c6577f4e487b7100000000000000000000000000000000000000000000000000000000600052602160045260246000fd5b021790555060408201518160010160016101000a81548173ffffffffffffffffffffffffffffffffffffffff021916908373ffffffffffffffffffffffffffffffffffffffff16021790555060608201518160010160156101000a81548160ff02191690831515021790555090505050505050565b60006008548210614381576040517f08c379a00000000000000000000000000000000000000000000000000000000081526004016143789061531c565b60405180910390fd5b6004600083815260200190815260200160002060080160009054906101000a900460ff169050919050565b600080600090505b600460008481526020019081526020016000206009015481101561453e57600060056000858152602001908152602001600020600083815260200190815260200160002060010154111561452b57600960009054906101000a900473ffffffffffffffffffffffffffffffffffffffff1673ffffffffffffffffffffffffffffffffffffffff166323b872dd3060056000878152602001908152602001600020600085815260200190815260200160002060000160009054906101000a900473ffffffffffffffffffffffffffffffffffffffff16600560008881526020019081526020016000206000868152602001908152602001600020600101546040518463ffffffff1660e01b81526004016144cf9392919061510f565b602060405180830381600087803b1580156144e957600080fd5b505af11580156144fd573d6000803e3d6000fd5b505050506040513d601f19601f8201168201806040525081019061452191906148d3565b61452a57600080fd5b5b808061453690615610565b9150506143b4565b5060019050919050565b6000600854831061458e576040517f08c379a00000000000000000000000000000000000000000000000000000000081526004016145859061531c565b60405180910390fd5b60005b60046000858152602001908152602001600020600a0154811015614644578273ffffffffffffffffffffffffffffffffffffffff1660066000868152602001908152602001600020600083815260200190815260200160002060009054906101000a900473ffffffffffffffffffffffffffffffffffffffff1673ffffffffffffffffffffffffffffffffffffffff16141561463157600191505061464a565b808061463c90615610565b915050614591565b50600090505b92915050565b60006008548310614696576040517f08c379a000000000000000000000000000000000000000000000000000000000815260040161468d9061531c565b60405180910390fd5b6000600190505b6004600085815260200190815260200160002060090154811161475d578273ffffffffffffffffffffffffffffffffffffffff166005600086815260200190815260200160002060006001846146f39190615518565b815260200190815260200160002060000160009054906101000a900473ffffffffffffffffffffffffffffffffffffffff1673ffffffffffffffffffffffffffffffffffffffff16141561474a5780915050614763565b808061475590615610565b91505061469d565b50600090505b92915050565b828054614775906155de565b90600052602060002090601f01602090048101928261479757600085556147de565b82601f106147b057805160ff19168380011785556147de565b828001600101855582156147de579182015b828111156147dd5782518255916020019190600101906147c2565b5b5090506147eb91906147ef565b5090565b5b808211156148085760008160009055506001016147f0565b5090565b60008135905061481b8161570e565b92915050565b60008151905061483081615725565b92915050565b6000813590506148458161573c565b92915050565b60008083601f84011261485d57600080fd5b8235905067ffffffffffffffff81111561487657600080fd5b60208301915083600182028301111561488e57600080fd5b9250929050565b6000813590506148a48161574c565b92915050565b6000602082840312156148bc57600080fd5b60006148ca8482850161480c565b91505092915050565b6000602082840312156148e557600080fd5b60006148f384828501614821565b91505092915050565b60008060006040848603121561491157600080fd5b600084013567ffffffffffffffff81111561492b57600080fd5b6149378682870161484b565b9350935050602061494a8682870161480c565b9150509250925092565b6000806000806060858703121561496a57600080fd5b600085013567ffffffffffffffff81111561498457600080fd5b6149908782880161484b565b945094505060206149a387828801614836565b92505060406149b48782880161480c565b91505092959194509250565b6000806000806000608086880312156149d857600080fd5b600086013567ffffffffffffffff8111156149f257600080fd5b6149fe8882890161484b565b95509550506020614a1188828901614895565b9350506040614a2288828901614895565b9250506060614a3388828901614836565b9150509295509295909350565b600060208284031215614a5257600080fd5b6000614a6084828501614895565b91505092915050565b60008060408385031215614a7c57600080fd5b6000614a8a85828601614895565b9250506020614a9b8582860161480c565b9150509250929050565b60008060408385031215614ab857600080fd5b6000614ac685828601614895565b9250506020614ad785828601614895565b9150509250929050565b614aea8161554c565b82525050565b614af9816155ba565b82525050565b614b08816155cc565b82525050565b6000614b1b602283615457565b91507f596f7520617265206e6f74207468652061737369676e6564206576616c75617460008301527f6f720000000000000000000000000000000000000000000000000000000000006020830152604082019050919050565b6000614b81600f83615457565b91507f416c7265616479206170706c69656400000000000000000000000000000000006000830152602082019050919050565b6000614bc1601c83615457565b91507f4e6f7420796f757220646f6d61696e206f6620657870657274697365000000006000830152602082019050919050565b6000614c01601083615457565b91507f4f6e6c7920667265656c616e63657273000000000000000000000000000000006000830152602082019050919050565b6000614c41601883615457565b91507f4576616c7561746f7220646f6573206e6f7420657869737400000000000000006000830152602082019050919050565b6000614c81601a83615457565b91507f43616e6e6f74207069636b20667265656c616e636572206e6f770000000000006000830152602082019050919050565b6000614cc1600e83615457565b91507f4f6e6c7920696e766573746f72730000000000000000000000000000000000006000830152602082019050919050565b6000614d01602083615457565b91507f596f75206861766520746f20696e7665737420736f6d657468696e672074686f6000830152602082019050919050565b6000614d41602183615457565b91507f596f7520646964206e6f7420636f6e747269627574656420776974682074686160008301527f74000000000000000000000000000000000000000000000000000000000000006020830152604082019050919050565b6000614da7602483615457565b91507f546865207461736b206973206e6f742077616974696e6720666f72206170707260008301527f6f76616c000000000000000000000000000000000000000000000000000000006020830152604082019050919050565b6000614e0d600f83615457565b91507f4f6e6c79206576616c7561746f727300000000000000000000000000000000006000830152602082019050919050565b6000614e4d601c83615457565b91507f5461736b20646f6573206e6f74206163636570742066756e64696e67000000006000830152602082019050919050565b6000614e8d600c83615457565b91507f4f6e6c79206d616e6167657200000000000000000000000000000000000000006000830152602082019050919050565b6000614ecd601983615457565b91507f5461736b20696e64657820646f6573206e6f74206578697374000000000000006000830152602082019050919050565b6000614f0d601c83615457565b91507f596f7520646964206e6f74206372656174652074686973207461736b000000006000830152602082019050919050565b6000614f4d601b83615457565b91507f546865207461736b20776173206e6f7420696e2070726f6772657300000000006000830152602082019050919050565b6000614f8d601f83615457565b91507f596f75206861766520746f2074616b65206261636b20736f6d657468696e67006000830152602082019050919050565b6000614fcd601b83615457565b91507f546865207461736b20776173206372656174656420627920796f7500000000006000830152602082019050919050565b600061500d601e83615457565b91507f43616e6e6f742074616b65206261636b2066756e647320616e796d6f726500006000830152602082019050919050565b600061504d601983615457565b91507f467265656c616e63657220646f6573206e6f74206578697374000000000000006000830152602082019050919050565b600061508d601983615457565b91507f43616e6e6f74207069636b206576616c7561746f72206e6f77000000000000006000830152602082019050919050565b60006150cd602083615457565b91507f546865207461736b20776173206e6f742061737369676e656420746f20796f756000830152602082019050919050565b615109816155b0565b82525050565b60006060820190506151246000830186614ae1565b6151316020830185614ae1565b61513e6040830184615100565b949350505050565b600060208201905061515b6000830184614af0565b92915050565b60006020820190506151766000830184614aff565b92915050565b6000602082019050818103600083015261519581614b0e565b9050919050565b600060208201905081810360008301526151b581614b74565b9050919050565b600060208201905081810360008301526151d581614bb4565b9050919050565b600060208201905081810360008301526151f581614bf4565b9050919050565b6000602082019050818103600083015261521581614c34565b9050919050565b6000602082019050818103600083015261523581614c74565b9050919050565b6000602082019050818103600083015261525581614cb4565b9050919050565b6000602082019050818103600083015261527581614cf4565b9050919050565b6000602082019050818103600083015261529581614d34565b9050919050565b600060208201905081810360008301526152b581614d9a565b9050919050565b600060208201905081810360008301526152d581614e00565b9050919050565b600060208201905081810360008301526152f581614e40565b9050919050565b6000602082019050818103600083015261531581614e80565b9050919050565b6000602082019050818103600083015261533581614ec0565b9050919050565b6000602082019050818103600083015261535581614f00565b9050919050565b6000602082019050818103600083015261537581614f40565b9050919050565b6000602082019050818103600083015261539581614f80565b9050919050565b600060208201905081810360008301526153b581614fc0565b9050919050565b600060208201905081810360008301526153d581615000565b9050919050565b600060208201905081810360008301526153f581615040565b9050919050565b6000602082019050818103600083015261541581615080565b9050919050565b60006020820190508181036000830152615435816150c0565b9050919050565b60006020820190506154516000830184615100565b92915050565b600082825260208201905092915050565b6000615473826155b0565b915061547e836155b0565b9250827fffffffffffffffffffffffffffffffffffffffffffffffffffffffffffffffff038211156154b3576154b2615659565b5b828201905092915050565b60006154c9826155b0565b91506154d4836155b0565b9250817fffffffffffffffffffffffffffffffffffffffffffffffffffffffffffffffff048311821515161561550d5761550c615659565b5b828202905092915050565b6000615523826155b0565b915061552e836155b0565b92508282101561554157615540615659565b5b828203905092915050565b600061555782615590565b9050919050565b60008115159050919050565b6000819050615578826156e6565b919050565b600081905061558b826156fa565b919050565b600073ffffffffffffffffffffffffffffffffffffffff82169050919050565b6000819050919050565b60006155c58261556a565b9050919050565b60006155d78261557d565b9050919050565b600060028204905060018216806155f657607f821691505b6020821081141561560a576156096156b7565b5b50919050565b600061561b826155b0565b91507fffffffffffffffffffffffffffffffffffffffffffffffffffffffffffffffff82141561564e5761564d615659565b5b600182019050919050565b7f4e487b7100000000000000000000000000000000000000000000000000000000600052601160045260246000fd5b7f4e487b7100000000000000000000000000000000000000000000000000000000600052602160045260246000fd5b7f4e487b7100000000000000000000000000000000000000000000000000000000600052602260045260246000fd5b600681106156f7576156f6615688565b5b50565b6009811061570b5761570a615688565b5b50565b6157178161554c565b811461572257600080fd5b50565b61572e8161555e565b811461573957600080fd5b50565b6004811061574957600080fd5b50565b615755816155b0565b811461576057600080fd5b5056fea26469706673582212202baad9796a67d73bb12b31a7a16c92645417f2e5dce8306d50ece4fe129c288764736f6c63430008000033",
  "immutableReferences": {},
  "source": "// SPDX-License-Identifier: MIT\r\npragma solidity ^0.8.0;\r\n\r\n\r\nimport \"./../token/MarketplaceToken.sol\";\r\n\r\ncontract Marketplace {\r\n    \r\n    struct Manager{\r\n        string name;\r\n        address managerAddress;\r\n        bool exists;\r\n    }\r\n\r\n    enum DomainExpertise {FRONTEND, BACKEND, WEB_DESIGN, NA}\r\n\r\n    struct Freelancer{\r\n        string  name;\r\n        DomainExpertise domainExpertise;\r\n        uint reputation;\r\n        address freelancerAddress;\r\n        bool exists;\r\n    }\r\n    struct Evaluator{\r\n        string  name;\r\n        DomainExpertise domainExpertise;\r\n        address evaluatorAddress;\r\n        bool exists;\r\n    }\r\n    struct Investor{\r\n        string  name;\r\n        address investorAddress;\r\n        bool exists;\r\n    }\r\n\r\n    enum Role {INVESTOR, FREELANCER, EVALUATOR, MANAGER, OWNER, NONE}\r\n    enum TaskState {WAITING_FOR_FUNDING, WAITING_FOR_EVALUATOR_ASSIGNMENT, FREELANCERS_APPLICATIONS, \r\n                    IN_PROGRESS, WAITING_FOR_APPR0VAL, WAITING_FOR_ARBITRAGE, APPROVED, REJECTED, DELETED}\r\n\r\n    struct Task{\r\n        string description;\r\n        uint256 freelancerReward;\r\n        uint256 evaluatorReward;\r\n        uint256 currentFunding;\r\n        DomainExpertise domainExpertise;\r\n        address managerAddress;\r\n        address evaluatorAddress;\r\n        address freelancerAddress;\r\n        uint256 index;\r\n        TaskState state;\r\n        uint256 investorsCount;\r\n        uint256 applicationsCount;\r\n    }\r\n\r\n    struct TaskFunding{\r\n        address investorAddress;\r\n        uint amount;\r\n    }\r\n\r\n    mapping (address => Manager) private managers;\r\n    mapping (address => Freelancer) private freelancers;\r\n    mapping (address => Evaluator) private evaluators;\r\n    mapping (address => Investor) private investors;\r\n    mapping (uint256 => Task) private tasks;\r\n    mapping (uint256 => mapping(uint256 => TaskFunding)) private taskFundings;\r\n    mapping (uint256 => mapping(uint256 => address)) private taskApplications;\r\n    \r\n    address private owner;\r\n    uint256 private tasksCount;\r\n    MarketplaceToken token;\r\n\r\n    modifier onlyAdmin(){\r\n        require(msg.sender == owner, \"Only admin\");\r\n        _;\r\n    }\r\n\r\n    modifier onlyManager(){\r\n        require(managers[msg.sender].exists == true, \"Only manager\");\r\n        _;\r\n    }\r\n\r\n    modifier onlyFreelancer(){\r\n        require(freelancers[msg.sender].exists == true, \"Only freelancers\");\r\n        _;\r\n    }\r\n\r\n    modifier onlyEvaluator(){\r\n        require(evaluators[msg.sender].exists == true, \"Only evaluators\");\r\n        _;\r\n    }\r\n\r\n    modifier onlyInvestor(){\r\n        require(investors[msg.sender].exists == true, \"Only investors\");\r\n        _;\r\n    }\r\n\r\n    constructor(address _tokenContractAddress){\r\n        owner = msg.sender;\r\n        tasksCount = 0;\r\n        token = MarketplaceToken(_tokenContractAddress);\r\n    }\r\n\r\n    function getUserRole(address _address) public view returns (Role){\r\n        if(managers[_address].exists){\r\n            return Role.MANAGER;\r\n        }\r\n        if(investors[_address].exists){\r\n            return Role.INVESTOR;\r\n        }\r\n        if(evaluators[_address].exists){\r\n            return Role.EVALUATOR;\r\n        }\r\n        if(freelancers[_address].exists){\r\n            return Role.FREELANCER;\r\n        }\r\n        return Role.NONE;\r\n    }\r\n\r\n    function addManager (string calldata _name, address _address) external {\r\n        require(managers[_address].exists == false);\r\n        managers[_address] = Manager(_name, _address, true);\r\n    }\r\n    \r\n    function addFreelancer (string calldata _name, DomainExpertise _domainExpertise, address _address) external {\r\n        require(freelancers[_address].exists == false);\r\n        freelancers[_address] = Freelancer(_name, _domainExpertise, 5, _address, true);\r\n    }\r\n\r\n    function addEvaluator (string calldata _name, DomainExpertise _domainExpertise, address _address) external {\r\n        require(evaluators[_address].exists == false);\r\n        evaluators[_address] = Evaluator(_name, _domainExpertise, _address, true);\r\n    }\r\n\r\n    function addInvestor (string calldata _name, address _address) external {\r\n        require(investors[_address].exists == false);\r\n        investors[_address] = Investor(_name, _address, true);\r\n    }\r\n\r\n    function createTask (string calldata _description, uint256 _freelancerReward, uint256 _evaluatorReward, DomainExpertise _domainExpertise) \r\n    external onlyManager(){\r\n        tasks[tasksCount] = Task(_description, _freelancerReward, _evaluatorReward, 0, \r\n                                 _domainExpertise, msg.sender, address(0), address(0),\r\n                                 tasksCount, TaskState.WAITING_FOR_FUNDING, 0, 0);\r\n        tasksCount += 1;\r\n    }\r\n\r\n    function getRemainingNecessaryFundingForTask(uint256 _taskIndex) public view returns (uint256) {\r\n        require(_taskIndex < tasksCount, \"Task index does not exist\"); \r\n        return tasks[_taskIndex].evaluatorReward + tasks[_taskIndex].freelancerReward - tasks[_taskIndex].currentFunding;\r\n    }\r\n\r\n    function getTaskState(uint256 _taskIndex) public view returns (TaskState){\r\n        require(_taskIndex < tasksCount, \"Task index does not exist\"); \r\n        return tasks[_taskIndex].state;\r\n    }\r\n\r\n    function fundTask (uint256 _taskIndex, uint256 _amount) \r\n    external payable onlyInvestor(){\r\n        require(_taskIndex < tasksCount, \"Task index does not exist\"); \r\n        require(tasks[_taskIndex].state == TaskState.WAITING_FOR_FUNDING, \"Task does not accept funding\");\r\n        require(_amount > 0, \"You have to invest something tho\");\r\n        require(tasks[_taskIndex].currentFunding + _amount > tasks[_taskIndex].evaluatorReward + tasks[_taskIndex].freelancerReward);\r\n        \r\n        //?require(token.approve(msg.sender, _amount));\r\n        require(token.transferFrom(msg.sender, address(this), _amount));\r\n\r\n        uint256 investorIndex = investorIndexForTask(_taskIndex, msg.sender);\r\n        if(investorIndex == 0){\r\n            taskFundings[_taskIndex][tasks[_taskIndex].investorsCount] = TaskFunding(msg.sender, _amount);\r\n            tasks[_taskIndex].investorsCount += 1;\r\n        }\r\n        else{\r\n            taskFundings[_taskIndex][investorIndex - 1].amount += _amount;\r\n        }\r\n\r\n        tasks[_taskIndex].currentFunding += _amount;\r\n        if(tasks[_taskIndex].currentFunding == tasks[_taskIndex].evaluatorReward + tasks[_taskIndex].freelancerReward){\r\n            tasks[_taskIndex].state = TaskState.WAITING_FOR_EVALUATOR_ASSIGNMENT;\r\n        }\r\n    }  \r\n\r\n    function investorIndexForTask(uint256 _taskIndex, address _investorAddress) private view returns (uint256){\r\n        require(_taskIndex < tasksCount, \"Task index does not exist\"); \r\n        \r\n        for (uint256 i = 1; i <= tasks[_taskIndex].investorsCount; i++) {\r\n            if(taskFundings[_taskIndex][i-1].investorAddress == _investorAddress){\r\n                return i;\r\n            }\r\n        }\r\n        return 0;\r\n    }\r\n\r\n    function takeBackFunding (uint256 _taskIndex, uint256 _amount) \r\n    external onlyInvestor(){\r\n        require(_taskIndex < tasksCount, \"Task index does not exist\"); \r\n        require(tasks[_taskIndex].state == TaskState.WAITING_FOR_FUNDING, \"Cannot take back funds anymore\");\r\n        require(_amount > 0, \"You have to take back something\");\r\n\r\n        uint256 investorIndex= investorIndexForTask(_taskIndex, msg.sender);\r\n        \r\n        require(investorIndex!=0 && taskFundings[_taskIndex][investorIndex].amount >= _amount, \"You did not contributed with that\");\r\n        \r\n        //?require(token.approve(msg.sender, _amount));\r\n        require(token.transferFrom(address(this), msg.sender, _amount));\r\n\r\n        taskFundings[_taskIndex][investorIndex].amount -= _amount;\r\n\r\n        tasks[_taskIndex].currentFunding -= _amount;\r\n    }  \r\n\r\n    function deteleTask (uint256 _taskIndex)\r\n    external onlyManager(){\r\n        require(_taskIndex < tasksCount, \"Task index does not exist\"); \r\n        require(tasks[_taskIndex].state == TaskState.WAITING_FOR_FUNDING, \"Cannot take back funds anymore\");\r\n        require(tasks[_taskIndex].managerAddress == msg.sender, \"You did not create this task\");\r\n\r\n        for (uint256 i = 0; i < tasks[_taskIndex].investorsCount; i++) {\r\n\r\n            if(taskFundings[_taskIndex][i].amount > 0){\r\n                require(token.transferFrom(address(this), taskFundings[_taskIndex][i].investorAddress, taskFundings[_taskIndex][i].amount));\r\n            }\r\n        }\r\n\r\n        tasks[_taskIndex].state = TaskState.DELETED;\r\n\r\n    }\r\n\r\n    function pickEvaluator (uint256 _taskIndex, address _evaluatorAddress)\r\n    external onlyManager(){\r\n        require(_taskIndex < tasksCount, \"Task index does not exist\"); \r\n        require(tasks[_taskIndex].state == TaskState.WAITING_FOR_EVALUATOR_ASSIGNMENT, \"Cannot pick evaluator now\");\r\n        require(tasks[_taskIndex].managerAddress == msg.sender, \"You did not create this task\");\r\n        require(evaluators[_evaluatorAddress].exists, \"Evaluator does not exist\");\r\n        require(tasks[_taskIndex].domainExpertise == evaluators[_evaluatorAddress].domainExpertise);\r\n        tasks[_taskIndex].evaluatorAddress = _evaluatorAddress;\r\n        tasks[_taskIndex].state = TaskState.FREELANCERS_APPLICATIONS;\r\n    }\r\n\r\n    function pickFreelancer (uint256 _taskIndex, uint256 _applicationIndex)\r\n    external onlyManager(){\r\n        require(_taskIndex < tasksCount, \"Task index does not exist\"); \r\n        require(tasks[_taskIndex].state == TaskState.FREELANCERS_APPLICATIONS, \"Cannot pick freelancer now\");\r\n        require(tasks[_taskIndex].managerAddress == msg.sender, \"You did not create this task\");\r\n        require(tasks[_taskIndex].applicationsCount >= _applicationIndex , \"Freelancer does not exist\");\r\n\r\n        tasks[_taskIndex].freelancerAddress = taskApplications[_taskIndex][_applicationIndex];\r\n\r\n        for (uint256 i = 0; i < tasks[_taskIndex].applicationsCount; i++) {\r\n             require(token.transferFrom(address(this), taskApplications[_taskIndex][i], tasks[_taskIndex].evaluatorReward));\r\n        }\r\n\r\n        tasks[_taskIndex].freelancerAddress = taskApplications[_taskIndex][_applicationIndex];\r\n        tasks[_taskIndex].state = TaskState.IN_PROGRESS;\r\n    }\r\n\r\n    function applyForATask(uint256 _taskIndex) \r\n    external payable onlyFreelancer(){\r\n        require(_taskIndex < tasksCount, \"Task index does not exist\"); \r\n        require(tasks[_taskIndex].state == TaskState.FREELANCERS_APPLICATIONS, \"Cannot pick evaluator now\");\r\n        require(tasks[_taskIndex].domainExpertise == freelancers[msg.sender].domainExpertise, \"Not your domain of expertise\");\r\n        require(freelancerAppliedForTask(_taskIndex, msg.sender) == false, \"Already applied\");\r\n        require(token.transferFrom(msg.sender, address(this), tasks[_taskIndex].evaluatorReward));\r\n\r\n        taskApplications[_taskIndex][tasks[_taskIndex].applicationsCount] = msg.sender;\r\n        tasks[_taskIndex].applicationsCount += 1;\r\n    }\r\n\r\n    function declareTaskFinished(uint256 _taskIndex)\r\n    external payable onlyFreelancer(){\r\n        require(_taskIndex < tasksCount, \"Task index does not exist\"); \r\n        require(tasks[_taskIndex].state == TaskState.IN_PROGRESS, \"The task was not in progres\");\r\n        require(tasks[_taskIndex].freelancerAddress == msg.sender, \"The task was not assigned to you\");\r\n\r\n        tasks[_taskIndex].state = TaskState.WAITING_FOR_APPR0VAL;       \r\n    }\r\n\r\n    function freelancerAppliedForTask(uint256 _taskIndex, address _freelancerAddress) private view returns (bool){\r\n        require(_taskIndex < tasksCount, \"Task index does not exist\"); \r\n        \r\n        for (uint256 i = 0; i < tasks[_taskIndex].applicationsCount; i++) {\r\n            if(taskApplications[_taskIndex][i] == _freelancerAddress){\r\n                return true;\r\n            }\r\n        }\r\n        return false;\r\n    }\r\n\r\n    function approveTask(uint256 _taskIndex)\r\n    external payable onlyManager(){\r\n        require(_taskIndex < tasksCount, \"Task index does not exist\"); \r\n        require(tasks[_taskIndex].state == TaskState.WAITING_FOR_APPR0VAL, \"The task is not waiting for approval\");\r\n        require(tasks[_taskIndex].managerAddress == msg.sender, \"The task was created by you\");\r\n\r\n        uint256 amount = tasks[_taskIndex].evaluatorReward * 2 + tasks[_taskIndex].freelancerReward; \r\n        require(token.transferFrom(address(this), tasks[_taskIndex].freelancerAddress, amount));\r\n\r\n        if(freelancers[tasks[_taskIndex].freelancerAddress].reputation < 10){\r\n            freelancers[tasks[_taskIndex].freelancerAddress].reputation += 1;\r\n        }\r\n        tasks[_taskIndex].state = TaskState.APPROVED;       \r\n    }\r\n\r\n    function rejectTask(uint256 _taskIndex)\r\n    external payable onlyManager(){\r\n        require(_taskIndex < tasksCount, \"Task index does not exist\"); \r\n        require(tasks[_taskIndex].state == TaskState.WAITING_FOR_APPR0VAL, \"The task is not waiting for approval\");\r\n        require(tasks[_taskIndex].managerAddress == msg.sender, \"The task was created by you\");\r\n\r\n        tasks[_taskIndex].state = TaskState.WAITING_FOR_ARBITRAGE;       \r\n    }\r\n\r\n    function approveTaskInArbitrage(uint256 _taskIndex)\r\n    external payable onlyEvaluator(){\r\n        require(_taskIndex < tasksCount, \"Task index does not exist\"); \r\n        require(tasks[_taskIndex].state == TaskState.WAITING_FOR_ARBITRAGE, \"The task is not waiting for approval\");\r\n        require(tasks[_taskIndex].evaluatorAddress == msg.sender, \"You are not the assigned evaluator\");\r\n\r\n        require(token.transferFrom(address(this), tasks[_taskIndex].evaluatorAddress, tasks[_taskIndex].evaluatorReward));\r\n        require(token.transferFrom(address(this), tasks[_taskIndex].evaluatorAddress, tasks[_taskIndex].evaluatorReward + tasks[_taskIndex].freelancerReward));\r\n\r\n        if(freelancers[tasks[_taskIndex].freelancerAddress].reputation < 10){\r\n            freelancers[tasks[_taskIndex].freelancerAddress].reputation += 1;\r\n        }\r\n        tasks[_taskIndex].state = TaskState.APPROVED;        \r\n    }\r\n\r\n    function rejectTaskInArbitrage(uint256 _taskIndex)\r\n    external payable onlyEvaluator(){\r\n        require(_taskIndex < tasksCount, \"Task index does not exist\"); \r\n        require(tasks[_taskIndex].state == TaskState.WAITING_FOR_ARBITRAGE, \"The task is not waiting for approval\");\r\n        require(tasks[_taskIndex].evaluatorAddress == msg.sender, \"You are not the assigned evaluator\");\r\n        \r\n        require(token.transferFrom(address(this), tasks[_taskIndex].evaluatorAddress, tasks[_taskIndex].evaluatorReward));\r\n        require(refundInvestors(_taskIndex));\r\n\r\n        if(freelancers[tasks[_taskIndex].freelancerAddress].reputation > 0){\r\n            freelancers[tasks[_taskIndex].freelancerAddress].reputation -= 1;\r\n        }\r\n        tasks[_taskIndex].state = TaskState.REJECTED;       \r\n    }\r\n\r\n    function refundInvestors(uint256 _taskIndex) private returns (bool){\r\n        \r\n        for (uint256 i = 0; i < tasks[_taskIndex].investorsCount; i++) {\r\n\r\n            if(taskFundings[_taskIndex][i].amount > 0){\r\n                require(token.transferFrom(address(this), taskFundings[_taskIndex][i].investorAddress, taskFundings[_taskIndex][i].amount));\r\n            }\r\n        }\r\n        return true;\r\n\r\n    }\r\n\r\n    \r\n}\r\n",
  "sourcePath": "/mnt/k/repos/Blockchain-FinalProject/contracts/marketplace/Main.sol",
  "compiler": {
    "name": "solc",
    "version": "0.8.0+commit.c7dfd78e.Emscripten.clang"
  },
  "schemaVersion": "3.4.4",
  "updatedAt": "2022-01-28T20:24:40.707Z",
  "networkType": "ethereum",
  "devdoc": {
    "kind": "dev",
    "methods": {},
    "version": 1
  },
  "userdoc": {
    "kind": "user",
    "methods": {},
    "version": 1
  }
}